{
  "_format": "hh-sol-artifact-1",
  "contractName": "TrustPointCustomer",
  "sourceName": "contracts/TrustPointCustomer.sol",
  "abi": [
    {
      "inputs": [],
      "stateMutability": "nonpayable",
      "type": "constructor"
    },
    {
      "inputs": [],
      "name": "AccessControlBadConfirmation",
      "type": "error"
    },
    {
      "inputs": [
        {
          "internalType": "address",
          "name": "account",
          "type": "address"
        },
        {
          "internalType": "bytes32",
          "name": "neededRole",
          "type": "bytes32"
        }
      ],
      "name": "AccessControlUnauthorizedAccount",
      "type": "error"
    },
    {
      "anonymous": false,
      "inputs": [
        {
          "indexed": true,
          "internalType": "bytes32",
          "name": "role",
          "type": "bytes32"
        },
        {
          "indexed": true,
          "internalType": "bytes32",
          "name": "previousAdminRole",
          "type": "bytes32"
        },
        {
          "indexed": true,
          "internalType": "bytes32",
          "name": "newAdminRole",
          "type": "bytes32"
        }
      ],
      "name": "RoleAdminChanged",
      "type": "event"
    },
    {
      "anonymous": false,
      "inputs": [
        {
          "indexed": true,
          "internalType": "bytes32",
          "name": "role",
          "type": "bytes32"
        },
        {
          "indexed": true,
          "internalType": "address",
          "name": "account",
          "type": "address"
        },
        {
          "indexed": true,
          "internalType": "address",
          "name": "sender",
          "type": "address"
        }
      ],
      "name": "RoleGranted",
      "type": "event"
    },
    {
      "anonymous": false,
      "inputs": [
        {
          "indexed": true,
          "internalType": "bytes32",
          "name": "role",
          "type": "bytes32"
        },
        {
          "indexed": true,
          "internalType": "address",
          "name": "account",
          "type": "address"
        },
        {
          "indexed": true,
          "internalType": "address",
          "name": "sender",
          "type": "address"
        }
      ],
      "name": "RoleRevoked",
      "type": "event"
    },
    {
      "inputs": [],
      "name": "BRAND_ROLE",
      "outputs": [
        {
          "internalType": "bytes32",
          "name": "",
          "type": "bytes32"
        }
      ],
      "stateMutability": "view",
      "type": "function"
    },
    {
      "inputs": [],
      "name": "BURNER_ROLE",
      "outputs": [
        {
          "internalType": "bytes32",
          "name": "",
          "type": "bytes32"
        }
      ],
      "stateMutability": "view",
      "type": "function"
    },
    {
      "inputs": [],
      "name": "CUSTOMER_ROLE",
      "outputs": [
        {
          "internalType": "bytes32",
          "name": "",
          "type": "bytes32"
        }
      ],
      "stateMutability": "view",
      "type": "function"
    },
    {
      "inputs": [],
      "name": "DEFAULT_ADMIN_ROLE",
      "outputs": [
        {
          "internalType": "bytes32",
          "name": "",
          "type": "bytes32"
        }
      ],
      "stateMutability": "view",
      "type": "function"
    },
    {
      "inputs": [],
      "name": "URI_SETTER_ROLE",
      "outputs": [
        {
          "internalType": "bytes32",
          "name": "",
          "type": "bytes32"
        }
      ],
      "stateMutability": "view",
      "type": "function"
    },
    {
      "inputs": [
        {
          "internalType": "address",
          "name": "",
          "type": "address"
        }
      ],
      "name": "brands",
      "outputs": [
        {
          "internalType": "bytes32",
          "name": "brandName",
          "type": "bytes32"
        },
        {
          "internalType": "address",
          "name": "brandAddress",
          "type": "address"
        },
        {
          "internalType": "enum TrustPointStorage.BrandBizType",
          "name": "businessType",
          "type": "uint8"
        },
        {
          "internalType": "bool",
          "name": "isMember",
          "type": "bool"
        }
      ],
      "stateMutability": "view",
      "type": "function"
    },
    {
      "inputs": [
        {
          "internalType": "address",
          "name": "",
          "type": "address"
        },
        {
          "internalType": "address",
          "name": "",
          "type": "address"
        }
      ],
      "name": "customerBrands",
      "outputs": [
        {
          "internalType": "bool",
          "name": "",
          "type": "bool"
        }
      ],
      "stateMutability": "view",
      "type": "function"
    },
    {
      "inputs": [
        {
          "internalType": "address",
          "name": "",
          "type": "address"
        }
      ],
      "name": "customers",
      "outputs": [
        {
          "internalType": "address",
          "name": "customerAddress",
          "type": "address"
        },
        {
          "internalType": "uint256",
          "name": "age",
          "type": "uint256"
        },
        {
          "internalType": "bytes32",
          "name": "gender",
          "type": "bytes32"
        },
        {
          "internalType": "bytes32",
          "name": "country",
          "type": "bytes32"
        },
        {
          "internalType": "uint256",
          "name": "totalPoints",
          "type": "uint256"
        },
        {
          "internalType": "bool",
          "name": "isMember",
          "type": "bool"
        }
      ],
      "stateMutability": "view",
      "type": "function"
    },
    {
      "inputs": [
        {
          "internalType": "bytes32",
          "name": "role",
          "type": "bytes32"
        }
      ],
      "name": "getRoleAdmin",
      "outputs": [
        {
          "internalType": "bytes32",
          "name": "",
          "type": "bytes32"
        }
      ],
      "stateMutability": "view",
      "type": "function"
    },
    {
      "inputs": [
        {
          "internalType": "bytes32",
          "name": "role",
          "type": "bytes32"
        },
        {
          "internalType": "address",
          "name": "account",
          "type": "address"
        }
      ],
      "name": "grantRole",
      "outputs": [],
      "stateMutability": "nonpayable",
      "type": "function"
    },
    {
      "inputs": [
        {
          "internalType": "bytes32",
          "name": "role",
          "type": "bytes32"
        },
        {
          "internalType": "address",
          "name": "account",
          "type": "address"
        }
      ],
      "name": "hasRole",
      "outputs": [
        {
          "internalType": "bool",
          "name": "",
          "type": "bool"
        }
      ],
      "stateMutability": "view",
      "type": "function"
    },
    {
      "inputs": [],
      "name": "owner",
      "outputs": [
        {
          "internalType": "address",
          "name": "",
          "type": "address"
        }
      ],
      "stateMutability": "view",
      "type": "function"
    },
    {
      "inputs": [
        {
          "internalType": "address",
          "name": "_addr",
          "type": "address"
        },
        {
          "internalType": "uint256",
          "name": "_age",
          "type": "uint256"
        },
        {
          "internalType": "bytes32",
          "name": "_gender",
          "type": "bytes32"
        },
        {
          "internalType": "bytes32",
          "name": "_country",
          "type": "bytes32"
        }
      ],
      "name": "registerCustomer",
      "outputs": [],
      "stateMutability": "nonpayable",
      "type": "function"
    },
    {
      "inputs": [
        {
          "internalType": "bytes32",
          "name": "role",
          "type": "bytes32"
        },
        {
          "internalType": "address",
          "name": "callerConfirmation",
          "type": "address"
        }
      ],
      "name": "renounceRole",
      "outputs": [],
      "stateMutability": "nonpayable",
      "type": "function"
    },
    {
      "inputs": [
        {
          "internalType": "bytes32",
          "name": "role",
          "type": "bytes32"
        },
        {
          "internalType": "address",
          "name": "account",
          "type": "address"
        }
      ],
      "name": "revokeRole",
      "outputs": [],
      "stateMutability": "nonpayable",
      "type": "function"
    },
    {
      "inputs": [
        {
          "internalType": "uint256",
          "name": "",
          "type": "uint256"
        }
      ],
      "name": "rewards",
      "outputs": [
        {
          "internalType": "uint256",
          "name": "id",
          "type": "uint256"
        },
        {
          "internalType": "string",
          "name": "name",
          "type": "string"
        },
        {
          "internalType": "string",
          "name": "description",
          "type": "string"
        },
        {
          "internalType": "uint256",
          "name": "pointsRequired",
          "type": "uint256"
        },
        {
          "internalType": "bool",
          "name": "activated",
          "type": "bool"
        }
      ],
      "stateMutability": "view",
      "type": "function"
    },
    {
      "inputs": [
        {
          "internalType": "bytes4",
          "name": "interfaceId",
          "type": "bytes4"
        }
      ],
      "name": "supportsInterface",
      "outputs": [
        {
          "internalType": "bool",
          "name": "",
          "type": "bool"
        }
      ],
      "stateMutability": "view",
      "type": "function"
    },
    {
      "inputs": [
        {
          "internalType": "address",
          "name": "_addr",
          "type": "address"
        },
        {
          "internalType": "uint256",
          "name": "_age",
          "type": "uint256"
        },
        {
          "internalType": "bytes32",
          "name": "_gender",
          "type": "bytes32"
        },
        {
          "internalType": "bytes32",
          "name": "_country",
          "type": "bytes32"
        }
      ],
      "name": "updateCustomer",
      "outputs": [],
      "stateMutability": "nonpayable",
      "type": "function"
    }
  ],
  "bytecode": "0x60a060405234801561001057600080fd5b503373ffffffffffffffffffffffffffffffffffffffff1660808173ffffffffffffffffffffffffffffffffffffffff16815250506100586000801b3361005e60201b60201c565b506101cd565b6000610070838361015b60201b60201c565b61015057600160008085815260200190815260200160002060000160008473ffffffffffffffffffffffffffffffffffffffff1673ffffffffffffffffffffffffffffffffffffffff16815260200190815260200160002060006101000a81548160ff0219169083151502179055506100ed6101c560201b60201c565b73ffffffffffffffffffffffffffffffffffffffff168273ffffffffffffffffffffffffffffffffffffffff16847f2f8788117e7eff1d82e926ec794901d17c78024a50270940304540a733656f0d60405160405180910390a460019050610155565b600090505b92915050565b600080600084815260200190815260200160002060000160008373ffffffffffffffffffffffffffffffffffffffff1673ffffffffffffffffffffffffffffffffffffffff16815260200190815260200160002060009054906101000a900460ff16905092915050565b600033905090565b60805161164e620001e9600039600061098e015261164e6000f3fe608060405234801561001057600080fd5b50600436106101165760003560e01c80633711e8f6116100a25780638da5cb5b116100715780638da5cb5b146102fb57806391d1485414610319578063a217fddf14610349578063d547741f14610367578063f301af421461038357610116565b80633711e8f614610270578063513288e51461028e5780635b7fd9b5146102aa5780637f345710146102dd57610116565b8063248a9ca3116100e9578063248a9ca3146101b5578063282c51f3146101e55780632f2ff15d14610203578063336989ae1461021f57806336568abe1461025457610116565b806301ffc9a71461011b57806307ebbb8e1461014b5780630928b13914610167578063204d792314610197575b600080fd5b61013560048036038101906101309190610ead565b6103b7565b6040516101429190610ef5565b60405180910390f35b61016560048036038101906101609190610fda565b610431565b005b610181600480360381019061017c9190611041565b6105dc565b60405161018e9190610ef5565b60405180910390f35b61019f61060b565b6040516101ac9190611090565b60405180910390f35b6101cf60048036038101906101ca91906110ab565b61062f565b6040516101dc9190611090565b60405180910390f35b6101ed61064e565b6040516101fa9190611090565b60405180910390f35b61021d600480360381019061021891906110d8565b610672565b005b61023960048036038101906102349190611118565b610694565b60405161024b96959493929190611163565b60405180910390f35b61026e600480360381019061026991906110d8565b6106fd565b005b610278610778565b6040516102859190611090565b60405180910390f35b6102a860048036038101906102a39190610fda565b61079c565b005b6102c460048036038101906102bf9190611118565b6108fe565b6040516102d4949392919061123b565b60405180910390f35b6102e5610968565b6040516102f29190611090565b60405180910390f35b61030361098c565b6040516103109190611280565b60405180910390f35b610333600480360381019061032e91906110d8565b6109b0565b6040516103409190610ef5565b60405180910390f35b610351610a1a565b60405161035e9190611090565b60405180910390f35b610381600480360381019061037c91906110d8565b610a21565b005b61039d6004803603810190610398919061129b565b610a43565b6040516103ae959493929190611358565b60405180910390f35b60007f7965db0b000000000000000000000000000000000000000000000000000000007bffffffffffffffffffffffffffffffffffffffffffffffffffffffff1916827bffffffffffffffffffffffffffffffffffffffffffffffffffffffff1916148061042a575061042982610b96565b5b9050919050565b600260008573ffffffffffffffffffffffffffffffffffffffff1673ffffffffffffffffffffffffffffffffffffffff16815260200190815260200160002060050160009054906101000a900460ff16156104c1576040517f08c379a00000000000000000000000000000000000000000000000000000000081526004016104b890611405565b60405180910390fd5b600160008573ffffffffffffffffffffffffffffffffffffffff1673ffffffffffffffffffffffffffffffffffffffff16815260200190815260200160002060010160159054906101000a900460ff16610550576040517f08c379a000000000000000000000000000000000000000000000000000000000815260040161054790611497565b60405180910390fd5b6000600260008673ffffffffffffffffffffffffffffffffffffffff1673ffffffffffffffffffffffffffffffffffffffff168152602001908152602001600020905083816001018190555082816002018190555081816003018190555060018160050160006101000a81548160ff021916908315150217905550600a81600401819055505050505050565b60036020528160005260406000206020528060005260406000206000915091509054906101000a900460ff1681565b7f288a15c4a15d470e4cd9cad2f113b91206b520c26dbd3dd74627f0c057baa19c81565b6000806000838152602001908152602001600020600101549050919050565b7f3c11d16cbaffd01df69ce1c404f6340ee057498f5f00246190ea54220576a84881565b61067b8261062f565b61068481610c00565b61068e8383610c14565b50505050565b60026020528060005260406000206000915090508060000160009054906101000a900473ffffffffffffffffffffffffffffffffffffffff16908060010154908060020154908060030154908060040154908060050160009054906101000a900460ff16905086565b610705610d05565b73ffffffffffffffffffffffffffffffffffffffff168173ffffffffffffffffffffffffffffffffffffffff1614610769576040517f6697b23200000000000000000000000000000000000000000000000000000000815260040160405180910390fd5b6107738282610d0d565b505050565b7fd52b9622fe3ce468afb95246111fe2ff28de74ab22e427623dca2ad2172e5f5981565b600260008573ffffffffffffffffffffffffffffffffffffffff1673ffffffffffffffffffffffffffffffffffffffff16815260200190815260200160002060050160009054906101000a900460ff1661082b576040517f08c379a000000000000000000000000000000000000000000000000000000000815260040161082290611503565b60405180910390fd5b8373ffffffffffffffffffffffffffffffffffffffff163373ffffffffffffffffffffffffffffffffffffffff1614610899576040517f08c379a00000000000000000000000000000000000000000000000000000000081526004016108909061156f565b60405180910390fd5b6000600260008673ffffffffffffffffffffffffffffffffffffffff1673ffffffffffffffffffffffffffffffffffffffff16815260200190815260200160002090508381600101819055508281600201819055508181600301819055505050505050565b60016020528060005260406000206000915090508060000154908060010160009054906101000a900473ffffffffffffffffffffffffffffffffffffffff16908060010160149054906101000a900460ff16908060010160159054906101000a900460ff16905084565b7f7804d923f43a17d325d77e781528e0793b2edd9890ab45fc64efd7b4b427744c81565b7f000000000000000000000000000000000000000000000000000000000000000081565b600080600084815260200190815260200160002060000160008373ffffffffffffffffffffffffffffffffffffffff1673ffffffffffffffffffffffffffffffffffffffff16815260200190815260200160002060009054906101000a900460ff16905092915050565b6000801b81565b610a2a8261062f565b610a3381610c00565b610a3d8383610d0d565b50505050565b6004602052806000526040600020600091509050806000015490806001018054610a6c906115be565b80601f0160208091040260200160405190810160405280929190818152602001828054610a98906115be565b8015610ae55780601f10610aba57610100808354040283529160200191610ae5565b820191906000526020600020905b815481529060010190602001808311610ac857829003601f168201915b505050505090806002018054610afa906115be565b80601f0160208091040260200160405190810160405280929190818152602001828054610b26906115be565b8015610b735780601f10610b4857610100808354040283529160200191610b73565b820191906000526020600020905b815481529060010190602001808311610b5657829003601f168201915b5050505050908060030154908060040160009054906101000a900460ff16905085565b60007f01ffc9a7000000000000000000000000000000000000000000000000000000007bffffffffffffffffffffffffffffffffffffffffffffffffffffffff1916827bffffffffffffffffffffffffffffffffffffffffffffffffffffffff1916149050919050565b610c1181610c0c610d05565b610dff565b50565b6000610c2083836109b0565b610cfa57600160008085815260200190815260200160002060000160008473ffffffffffffffffffffffffffffffffffffffff1673ffffffffffffffffffffffffffffffffffffffff16815260200190815260200160002060006101000a81548160ff021916908315150217905550610c97610d05565b73ffffffffffffffffffffffffffffffffffffffff168273ffffffffffffffffffffffffffffffffffffffff16847f2f8788117e7eff1d82e926ec794901d17c78024a50270940304540a733656f0d60405160405180910390a460019050610cff565b600090505b92915050565b600033905090565b6000610d1983836109b0565b15610df457600080600085815260200190815260200160002060000160008473ffffffffffffffffffffffffffffffffffffffff1673ffffffffffffffffffffffffffffffffffffffff16815260200190815260200160002060006101000a81548160ff021916908315150217905550610d91610d05565b73ffffffffffffffffffffffffffffffffffffffff168273ffffffffffffffffffffffffffffffffffffffff16847ff6391f5c32d9c69d2a47ea670b442974b53935d1edc7fd64eb21e047a839171b60405160405180910390a460019050610df9565b600090505b92915050565b610e0982826109b0565b610e4c5780826040517fe2517d3f000000000000000000000000000000000000000000000000000000008152600401610e439291906115ef565b60405180910390fd5b5050565b600080fd5b60007fffffffff0000000000000000000000000000000000000000000000000000000082169050919050565b610e8a81610e55565b8114610e9557600080fd5b50565b600081359050610ea781610e81565b92915050565b600060208284031215610ec357610ec2610e50565b5b6000610ed184828501610e98565b91505092915050565b60008115159050919050565b610eef81610eda565b82525050565b6000602082019050610f0a6000830184610ee6565b92915050565b600073ffffffffffffffffffffffffffffffffffffffff82169050919050565b6000610f3b82610f10565b9050919050565b610f4b81610f30565b8114610f5657600080fd5b50565b600081359050610f6881610f42565b92915050565b6000819050919050565b610f8181610f6e565b8114610f8c57600080fd5b50565b600081359050610f9e81610f78565b92915050565b6000819050919050565b610fb781610fa4565b8114610fc257600080fd5b50565b600081359050610fd481610fae565b92915050565b60008060008060808587031215610ff457610ff3610e50565b5b600061100287828801610f59565b945050602061101387828801610f8f565b935050604061102487828801610fc5565b925050606061103587828801610fc5565b91505092959194509250565b6000806040838503121561105857611057610e50565b5b600061106685828601610f59565b925050602061107785828601610f59565b9150509250929050565b61108a81610fa4565b82525050565b60006020820190506110a56000830184611081565b92915050565b6000602082840312156110c1576110c0610e50565b5b60006110cf84828501610fc5565b91505092915050565b600080604083850312156110ef576110ee610e50565b5b60006110fd85828601610fc5565b925050602061110e85828601610f59565b9150509250929050565b60006020828403121561112e5761112d610e50565b5b600061113c84828501610f59565b91505092915050565b61114e81610f30565b82525050565b61115d81610f6e565b82525050565b600060c0820190506111786000830189611145565b6111856020830188611154565b6111926040830187611081565b61119f6060830186611081565b6111ac6080830185611154565b6111b960a0830184610ee6565b979650505050505050565b7f4e487b7100000000000000000000000000000000000000000000000000000000600052602160045260246000fd5b60068110611204576112036111c4565b5b50565b6000819050611215826111f3565b919050565b600061122582611207565b9050919050565b6112358161121a565b82525050565b60006080820190506112506000830187611081565b61125d6020830186611145565b61126a604083018561122c565b6112776060830184610ee6565b95945050505050565b60006020820190506112956000830184611145565b92915050565b6000602082840312156112b1576112b0610e50565b5b60006112bf84828501610f8f565b91505092915050565b600081519050919050565b600082825260208201905092915050565b60005b838110156113025780820151818401526020810190506112e7565b60008484015250505050565b6000601f19601f8301169050919050565b600061132a826112c8565b61133481856112d3565b93506113448185602086016112e4565b61134d8161130e565b840191505092915050565b600060a08201905061136d6000830188611154565b818103602083015261137f818761131f565b90508181036040830152611393818661131f565b90506113a26060830185611154565b6113af6080830184610ee6565b9695505050505050565b7f416c726561647920637573746f6d65722e000000000000000000000000000000600082015250565b60006113ef6011836112d3565b91506113fa826113b9565b602082019050919050565b6000602082019050818103600083015261141e816113e2565b9050919050565b7f4272616e64732063616e6e6f7420726567697374657220617320637573746f6d60008201527f65722e0000000000000000000000000000000000000000000000000000000000602082015250565b60006114816023836112d3565b915061148c82611425565b604082019050919050565b600060208201905081810360008301526114b081611474565b9050919050565b7f4e6f742061206d656d6265720000000000000000000000000000000000000000600082015250565b60006114ed600c836112d3565b91506114f8826114b7565b602082019050919050565b6000602082019050818103600083015261151c816114e0565b9050919050565b7f5065726d697373696f6e2064656e696564000000000000000000000000000000600082015250565b60006115596011836112d3565b915061156482611523565b602082019050919050565b600060208201905081810360008301526115888161154c565b9050919050565b7f4e487b7100000000000000000000000000000000000000000000000000000000600052602260045260246000fd5b600060028204905060018216806115d657607f821691505b6020821081036115e9576115e861158f565b5b50919050565b60006040820190506116046000830185611145565b6116116020830184611081565b939250505056fea2646970667358221220d1991178531cf8f8a62b69ec08b89534c4f18064c2c5c1be141b59e01f7de10164736f6c63430008140033",
  "linkReferences": {},
  "deployedLinkReferences": {}
}